{
  "contractName": "TheButton",
  "abi": [
    {
      "constant": true,
      "inputs": [],
      "name": "active",
      "outputs": [
        {
          "name": "",
          "type": "bool"
        }
      ],
      "payable": false,
      "stateMutability": "view",
      "type": "function"
    },
    {
      "constant": true,
      "inputs": [],
      "name": "timeLeft",
      "outputs": [
        {
          "name": "",
          "type": "uint256"
        }
      ],
      "payable": false,
      "stateMutability": "view",
      "type": "function"
    },
    {
      "constant": true,
      "inputs": [],
      "name": "revenueFraction",
      "outputs": [
        {
          "name": "",
          "type": "uint256"
        }
      ],
      "payable": false,
      "stateMutability": "view",
      "type": "function"
    },
    {
      "constant": false,
      "inputs": [
        {
          "name": "owner_",
          "type": "address"
        }
      ],
      "name": "setOwner",
      "outputs": [],
      "payable": false,
      "stateMutability": "nonpayable",
      "type": "function"
    },
    {
      "constant": true,
      "inputs": [
        {
          "name": "",
          "type": "uint256"
        }
      ],
      "name": "campaigns",
      "outputs": [
        {
          "name": "price",
          "type": "uint256"
        },
        {
          "name": "priceMultiplier",
          "type": "uint256"
        },
        {
          "name": "devFraction",
          "type": "uint256"
        },
        {
          "name": "charityFraction",
          "type": "uint256"
        },
        {
          "name": "jackpotFraction",
          "type": "uint256"
        },
        {
          "name": "newCampaignFraction",
          "type": "uint256"
        },
        {
          "name": "lastPresser",
          "type": "address"
        },
        {
          "name": "deadline",
          "type": "uint64"
        },
        {
          "name": "presses",
          "type": "uint40"
        },
        {
          "name": "n",
          "type": "uint32"
        },
        {
          "name": "period",
          "type": "uint32"
        },
        {
          "name": "finalized",
          "type": "bool"
        },
        {
          "components": [
            {
              "name": "name",
              "type": "bytes32"
            },
            {
              "name": "balance",
              "type": "uint256"
            }
          ],
          "name": "total",
          "type": "tuple"
        }
      ],
      "payable": false,
      "stateMutability": "view",
      "type": "function"
    },
    {
      "constant": true,
      "inputs": [],
      "name": "latestData",
      "outputs": [
        {
          "name": "price",
          "type": "uint256"
        },
        {
          "name": "jackpot",
          "type": "uint256"
        },
        {
          "name": "char",
          "type": "uint256"
        },
        {
          "name": "deadline",
          "type": "uint64"
        },
        {
          "name": "presses",
          "type": "uint256"
        },
        {
          "name": "lastPresser",
          "type": "address"
        }
      ],
      "payable": false,
      "stateMutability": "view",
      "type": "function"
    },
    {
      "constant": true,
      "inputs": [],
      "name": "totalPresses",
      "outputs": [
        {
          "name": "",
          "type": "uint256"
        }
      ],
      "payable": false,
      "stateMutability": "view",
      "type": "function"
    },
    {
      "constant": true,
      "inputs": [],
      "name": "deadline",
      "outputs": [
        {
          "name": "",
          "type": "uint64"
        }
      ],
      "payable": false,
      "stateMutability": "view",
      "type": "function"
    },
    {
      "constant": true,
      "inputs": [],
      "name": "n",
      "outputs": [
        {
          "name": "",
          "type": "uint256"
        }
      ],
      "payable": false,
      "stateMutability": "view",
      "type": "function"
    },
    {
      "constant": true,
      "inputs": [],
      "name": "totalETH",
      "outputs": [
        {
          "name": "",
          "type": "uint256"
        }
      ],
      "payable": false,
      "stateMutability": "view",
      "type": "function"
    },
    {
      "constant": true,
      "inputs": [],
      "name": "nextCampaign",
      "outputs": [
        {
          "name": "name",
          "type": "bytes32"
        },
        {
          "name": "balance",
          "type": "uint256"
        }
      ],
      "payable": false,
      "stateMutability": "view",
      "type": "function"
    },
    {
      "constant": true,
      "inputs": [],
      "name": "revenue",
      "outputs": [
        {
          "name": "name",
          "type": "bytes32"
        },
        {
          "name": "balance",
          "type": "uint256"
        }
      ],
      "payable": false,
      "stateMutability": "view",
      "type": "function"
    },
    {
      "constant": false,
      "inputs": [],
      "name": "donateJackpot",
      "outputs": [],
      "payable": false,
      "stateMutability": "nonpayable",
      "type": "function"
    },
    {
      "constant": false,
      "inputs": [],
      "name": "withdrawRevenue",
      "outputs": [],
      "payable": false,
      "stateMutability": "nonpayable",
      "type": "function"
    },
    {
      "constant": false,
      "inputs": [
        {
          "name": "_charity",
          "type": "address"
        }
      ],
      "name": "setCharityBeneficiary",
      "outputs": [],
      "payable": false,
      "stateMutability": "nonpayable",
      "type": "function"
    },
    {
      "constant": true,
      "inputs": [],
      "name": "presses",
      "outputs": [
        {
          "name": "",
          "type": "uint256"
        }
      ],
      "payable": false,
      "stateMutability": "view",
      "type": "function"
    },
    {
      "constant": true,
      "inputs": [],
      "name": "jackpot",
      "outputs": [
        {
          "name": "",
          "type": "uint256"
        }
      ],
      "payable": false,
      "stateMutability": "view",
      "type": "function"
    },
    {
      "constant": true,
      "inputs": [],
      "name": "stopped",
      "outputs": [
        {
          "name": "",
          "type": "bool"
        }
      ],
      "payable": false,
      "stateMutability": "view",
      "type": "function"
    },
    {
      "constant": true,
      "inputs": [],
      "name": "jackpotFraction",
      "outputs": [
        {
          "name": "",
          "type": "uint256"
        }
      ],
      "payable": false,
      "stateMutability": "view",
      "type": "function"
    },
    {
      "constant": true,
      "inputs": [],
      "name": "charityBeneficiary",
      "outputs": [
        {
          "name": "",
          "type": "address"
        }
      ],
      "payable": false,
      "stateMutability": "view",
      "type": "function"
    },
    {
      "constant": false,
      "inputs": [
        {
          "name": "authority_",
          "type": "address"
        }
      ],
      "name": "setAuthority",
      "outputs": [],
      "payable": false,
      "stateMutability": "nonpayable",
      "type": "function"
    },
    {
      "constant": true,
      "inputs": [],
      "name": "owner",
      "outputs": [
        {
          "name": "",
          "type": "address"
        }
      ],
      "payable": false,
      "stateMutability": "view",
      "type": "function"
    },
    {
      "constant": true,
      "inputs": [],
      "name": "charity",
      "outputs": [
        {
          "name": "",
          "type": "uint256"
        }
      ],
      "payable": false,
      "stateMutability": "view",
      "type": "function"
    },
    {
      "constant": true,
      "inputs": [],
      "name": "price",
      "outputs": [
        {
          "name": "",
          "type": "uint256"
        }
      ],
      "payable": false,
      "stateMutability": "view",
      "type": "function"
    },
    {
      "constant": true,
      "inputs": [
        {
          "name": "_guy",
          "type": "address"
        }
      ],
      "name": "hasWon",
      "outputs": [
        {
          "name": "",
          "type": "uint256"
        }
      ],
      "payable": false,
      "stateMutability": "view",
      "type": "function"
    },
    {
      "constant": false,
      "inputs": [
        {
          "name": "startingPrice_",
          "type": "uint256"
        },
        {
          "name": "priceMul_",
          "type": "uint256"
        },
        {
          "name": "period_",
          "type": "uint32"
        },
        {
          "name": "n_",
          "type": "uint32"
        }
      ],
      "name": "setButtonParams",
      "outputs": [],
      "payable": false,
      "stateMutability": "nonpayable",
      "type": "function"
    },
    {
      "constant": true,
      "inputs": [],
      "name": "totalWon",
      "outputs": [
        {
          "name": "",
          "type": "uint256"
        }
      ],
      "payable": false,
      "stateMutability": "view",
      "type": "function"
    },
    {
      "constant": true,
      "inputs": [],
      "name": "totalRevenue",
      "outputs": [
        {
          "name": "",
          "type": "uint256"
        }
      ],
      "payable": false,
      "stateMutability": "view",
      "type": "function"
    },
    {
      "constant": true,
      "inputs": [],
      "name": "authority",
      "outputs": [
        {
          "name": "",
          "type": "address"
        }
      ],
      "payable": false,
      "stateMutability": "view",
      "type": "function"
    },
    {
      "constant": false,
      "inputs": [],
      "name": "withdrawJackpot",
      "outputs": [],
      "payable": false,
      "stateMutability": "nonpayable",
      "type": "function"
    },
    {
      "constant": true,
      "inputs": [],
      "name": "baseETHBalance",
      "outputs": [
        {
          "name": "",
          "type": "uint256"
        }
      ],
      "payable": false,
      "stateMutability": "view",
      "type": "function"
    },
    {
      "constant": true,
      "inputs": [],
      "name": "priceMultiplier",
      "outputs": [
        {
          "name": "",
          "type": "uint256"
        }
      ],
      "payable": false,
      "stateMutability": "view",
      "type": "function"
    },
    {
      "constant": true,
      "inputs": [],
      "name": "totalCharity",
      "outputs": [
        {
          "name": "",
          "type": "uint256"
        }
      ],
      "payable": false,
      "stateMutability": "view",
      "type": "function"
    },
    {
      "constant": true,
      "inputs": [],
      "name": "startingPrice",
      "outputs": [
        {
          "name": "",
          "type": "uint256"
        }
      ],
      "payable": false,
      "stateMutability": "view",
      "type": "function"
    },
    {
      "constant": false,
      "inputs": [
        {
          "name": "_devF",
          "type": "uint256"
        },
        {
          "name": "_charityF",
          "type": "uint256"
        },
        {
          "name": "_newCampF",
          "type": "uint256"
        }
      ],
      "name": "setAccountingParams",
      "outputs": [],
      "payable": false,
      "stateMutability": "nonpayable",
      "type": "function"
    },
    {
      "constant": true,
      "inputs": [],
      "name": "lastCampaignID",
      "outputs": [
        {
          "name": "",
          "type": "uint256"
        }
      ],
      "payable": false,
      "stateMutability": "view",
      "type": "function"
    },
    {
      "constant": true,
      "inputs": [],
      "name": "lastPresser",
      "outputs": [
        {
          "name": "",
          "type": "address"
        }
      ],
      "payable": false,
      "stateMutability": "view",
      "type": "function"
    },
    {
      "constant": true,
      "inputs": [],
      "name": "period",
      "outputs": [
        {
          "name": "",
          "type": "uint256"
        }
      ],
      "payable": false,
      "stateMutability": "view",
      "type": "function"
    },
    {
      "constant": true,
      "inputs": [],
      "name": "charityFraction",
      "outputs": [
        {
          "name": "",
          "type": "uint256"
        }
      ],
      "payable": false,
      "stateMutability": "view",
      "type": "function"
    },
    {
      "constant": false,
      "inputs": [
        {
          "name": "callData",
          "type": "bytes"
        }
      ],
      "name": "sendCharityETH",
      "outputs": [],
      "payable": false,
      "stateMutability": "nonpayable",
      "type": "function"
    },
    {
      "constant": true,
      "inputs": [],
      "name": "totalsData",
      "outputs": [
        {
          "name": "_totalWon",
          "type": "uint256"
        },
        {
          "name": "_totalCharity",
          "type": "uint256"
        },
        {
          "name": "_totalPresses",
          "type": "uint256"
        }
      ],
      "payable": false,
      "stateMutability": "view",
      "type": "function"
    },
    {
      "inputs": [],
      "payable": false,
      "stateMutability": "nonpayable",
      "type": "constructor"
    },
    {
      "payable": true,
      "stateMutability": "payable",
      "type": "fallback"
    },
    {
      "anonymous": false,
      "inputs": [
        {
          "indexed": false,
          "name": "by",
          "type": "address"
        },
        {
          "indexed": false,
          "name": "paid",
          "type": "uint256"
        },
        {
          "indexed": false,
          "name": "timeLeft",
          "type": "uint64"
        }
      ],
      "name": "Pressed",
      "type": "event"
    },
    {
      "anonymous": false,
      "inputs": [
        {
          "indexed": false,
          "name": "startingETH",
          "type": "uint256"
        },
        {
          "indexed": false,
          "name": "period",
          "type": "uint32"
        },
        {
          "indexed": false,
          "name": "i",
          "type": "uint256"
        }
      ],
      "name": "Started",
      "type": "event"
    },
    {
      "anonymous": false,
      "inputs": [
        {
          "indexed": false,
          "name": "guy",
          "type": "address"
        },
        {
          "indexed": false,
          "name": "jackpot",
          "type": "uint256"
        }
      ],
      "name": "Winrar",
      "type": "event"
    },
    {
      "anonymous": false,
      "inputs": [
        {
          "indexed": false,
          "name": "newCharityBeneficiary",
          "type": "address"
        }
      ],
      "name": "CharityChanged",
      "type": "event"
    },
    {
      "anonymous": false,
      "inputs": [
        {
          "indexed": false,
          "name": "startingPrice",
          "type": "uint256"
        },
        {
          "indexed": false,
          "name": "n",
          "type": "uint32"
        },
        {
          "indexed": false,
          "name": "period",
          "type": "uint32"
        },
        {
          "indexed": false,
          "name": "priceMul",
          "type": "uint256"
        }
      ],
      "name": "ButtonParamsChanged",
      "type": "event"
    },
    {
      "anonymous": false,
      "inputs": [
        {
          "indexed": false,
          "name": "devFraction",
          "type": "uint256"
        },
        {
          "indexed": false,
          "name": "charityFraction",
          "type": "uint256"
        },
        {
          "indexed": false,
          "name": "jackpotFraction",
          "type": "uint256"
        }
      ],
      "name": "AccountingParamsChanged",
      "type": "event"
    },
    {
      "anonymous": false,
      "inputs": [
        {
          "indexed": true,
          "name": "account",
          "type": "bytes32"
        },
        {
          "indexed": true,
          "name": "from",
          "type": "address"
        },
        {
          "indexed": false,
          "name": "value",
          "type": "uint256"
        }
      ],
      "name": "ETHDeposited",
      "type": "event"
    },
    {
      "anonymous": false,
      "inputs": [
        {
          "indexed": true,
          "name": "account",
          "type": "bytes32"
        },
        {
          "indexed": true,
          "name": "to",
          "type": "address"
        },
        {
          "indexed": false,
          "name": "value",
          "type": "uint256"
        }
      ],
      "name": "ETHSent",
      "type": "event"
    },
    {
      "anonymous": false,
      "inputs": [
        {
          "indexed": true,
          "name": "fromAccount",
          "type": "bytes32"
        },
        {
          "indexed": true,
          "name": "toAccount",
          "type": "bytes32"
        },
        {
          "indexed": false,
          "name": "value",
          "type": "uint256"
        }
      ],
      "name": "ETHTransferred",
      "type": "event"
    },
    {
      "anonymous": false,
      "inputs": [
        {
          "indexed": true,
          "name": "authority",
          "type": "address"
        }
      ],
      "name": "LogSetAuthority",
      "type": "event"
    },
    {
      "anonymous": false,
      "inputs": [
        {
          "indexed": true,
          "name": "owner",
          "type": "address"
        }
      ],
      "name": "LogSetOwner",
      "type": "event"
    },
    {
      "constant": false,
      "inputs": [],
      "name": "press",
      "outputs": [],
      "payable": true,
      "stateMutability": "payable",
      "type": "function"
    },
    {
      "constant": false,
      "inputs": [],
      "name": "start",
      "outputs": [],
      "payable": true,
      "stateMutability": "payable",
      "type": "function"
    },
    {
      "constant": false,
      "inputs": [],
      "name": "stop",
      "outputs": [],
      "payable": false,
      "stateMutability": "nonpayable",
      "type": "function"
    },
    {
      "constant": false,
      "inputs": [],
      "name": "finalizeLastCampaign",
      "outputs": [],
      "payable": false,
      "stateMutability": "nonpayable",
      "type": "function"
    },
    {
      "constant": false,
      "inputs": [
        {
          "name": "id",
          "type": "uint256"
        }
      ],
      "name": "finalizeCampaign",
      "outputs": [],
      "payable": false,
      "stateMutability": "nonpayable",
      "type": "function"
    }
  ],
  "bytecode": "0x7f42617365000000000000000000000000000000000000000000000000000000006080819052600060a08190526003918255600481905566038d7ea4c68000600955670e92596fd6290000600a55600b805463ffffffff191690921767ffffffff00000000191664b400000000179091556611c37937e08000600c5567015181ff25a98000600d5566b1a2bc2ec50000600e55670bcbce7f1b150000600f557f526576656e75650000000000000000000000000000000000000000000000000060c081905260e082905260115560128190557f4e6578742043616d706169676e0000000000000000000000000000000000000061010081905261012082905260135560148190556101806040527f436861726974790000000000000000000000000000000000000000000000000061014081905261016082905260155560165534801561014b57600080fd5b5060018054600160a060020a031916339081179091556040517fce241d7ca1f669fee44b6fc00b8eba2df3bb514eed0f6f668f8f89096e81ed9490600090a2612900806101996000396000f3006080604052600436106102165763ffffffff60e060020a60003504166302fb0c5e811461022057806307da68f5146102495780631300a6d11461025e578063136dbbab1461028557806313af40351461029a578063141961bc146102bb578063142bc2ae1461035c5780632741876a146103b657806329dcb0cf146103cb5780632e52d606146103fd57806336bdee74146104125780633cc53197146104275780633e9491a2146104555780634ec4878b1461046a5780634f573cb21461047f5780635b3725321461021657806361c3b7f114610494578063682e60a9146104b55780636b31ee01146104ca5780636b5ca27d146104df57806375f12b21146104f7578063772506bb1461050c57806377c71396146105215780637a9e5e4b146105525780638da5cb5b14610573578063934aa02314610588578063a035b1fe1461059d578063a52b2b88146105b2578063a78adfec146105d3578063b3ff277d146105fd578063be9a655514610612578063bf2d9e0b1461061a578063bf7e214f1461062f578063c0b3870a14610644578063cb14681414610659578063d50cb88b1461066e578063d608b3b214610683578063d6fbf20214610698578063debe1c69146106ad578063e99a7dca146106cb578063ec18ca9c146106e0578063ed2c92b1146106f5578063ef78d4fd1461070a578063f4aac0341461071f578063f63ef74414610734578063f8b45b061461078d575b61021e6107c0565b005b34801561022c57600080fd5b506102356108d2565b604080519115158252519081900360200190f35b34801561025557600080fd5b5061021e610925565b34801561026a57600080fd5b50610273610955565b60408051918252519081900360200190f35b34801561029157600080fd5b506102736109ab565b3480156102a657600080fd5b5061021e600160a060020a03600435166109ed565b3480156102c757600080fd5b506102d3600435610a6b565b604080519d8e5260208e019c909c528c8c019a909a5260608c019890985260808b019690965260a08a0194909452600160a060020a0390921660c089015267ffffffffffffffff1660e088015264ffffffffff1661010087015263ffffffff90811661012087015216610140850152151561016084015261018083015251908190036101a00190f35b34801561036857600080fd5b50610371610b3c565b6040805196875260208701959095528585019390935267ffffffffffffffff90911660608501526080840152600160a060020a031660a0830152519081900360c00190f35b3480156103c257600080fd5b50610273610e47565b3480156103d757600080fd5b506103e0610eca565b6040805167ffffffffffffffff9092168252519081900360200190f35b34801561040957600080fd5b50610273610f08565b34801561041e57600080fd5b50610273610f61565b34801561043357600080fd5b5061043c610f67565b6040805192835260208301919091528051918290030190f35b34801561046157600080fd5b5061043c610f70565b34801561047657600080fd5b5061021e610f79565b34801561048b57600080fd5b5061021e611004565b3480156104a057600080fd5b5061021e600160a060020a0360043516611043565b3480156104c157600080fd5b5061027361112d565b3480156104d657600080fd5b5061027361116f565b3480156104eb57600080fd5b5061021e6004356111f1565b34801561050357600080fd5b5061023561121f565b34801561051857600080fd5b50610273611228565b34801561052d57600080fd5b5061053661126a565b60408051600160a060020a039092168252519081900360200190f35b34801561055e57600080fd5b5061021e600160a060020a0360043516611279565b34801561057f57600080fd5b506105366112f3565b34801561059457600080fd5b50610273611302565b3480156105a957600080fd5b5061027361135d565b3480156105be57600080fd5b50610273600160a060020a036004351661139f565b3480156105df57600080fd5b5061021e60043560243563ffffffff604435811690606435166113bd565b34801561060957600080fd5b50610273611525565b61021e61152b565b34801561062657600080fd5b5061027361162e565b34801561063b57600080fd5b50610536611634565b34801561065057600080fd5b5061021e611643565b34801561066557600080fd5b506102736116c9565b34801561067a57600080fd5b506102736116cf565b34801561068f57600080fd5b50610273611711565b3480156106a457600080fd5b5061027361178f565b3480156106b957600080fd5b5061021e600435602435604435611795565b3480156106d757600080fd5b50610273611914565b3480156106ec57600080fd5b5061053661191a565b34801561070157600080fd5b5061021e61195a565b34801561071657600080fd5b50610273611986565b34801561072b57600080fd5b506102736119eb565b34801561074057600080fd5b506040805160206004803580820135601f810184900484028501840190955284845261021e943694929360249392840191908190840183828082843750949750611a2d9650505050505050565b34801561079957600080fd5b506107a2611a6d565b60408051938452602084019290925282820152519081900360600190f35b6000601a6019548154811015156107d357fe5b90600052602060002090600a020190506107eb6108d2565b1561080c576107f981611aef565b610807816008013334611ceb565b6108cf565b601b5460ff1615610867576040805160e560020a62461bcd02815260206004820152601160248201527f436f6e74726163742073746f7070656421000000000000000000000000000000604482015290519081900360640190fd5b60078101546d0100000000000000000000000000900460ff16151561088f5761088f81611d62565b610897612059565b601a6019548154811015156108a857fe5b90600052602060002090600a020190506108c181611aef565b6108cf816008013334611ceb565b50565b601a5460009015156108e657506000610922565b42601a6019548154811015156108f857fe5b60009182526020909120600a909102016006015460a060020a900467ffffffffffffffff16101590505b90565b61093b33600035600160e060020a031916612379565b151561094657600080fd5b601b805460ff19166001179055565b600061095f6108d2565b156109a35742601a60195481548110151561097657fe5b60009182526020909120600a909102016006015460a060020a900467ffffffffffffffff16039050610922565b506000610922565b60006109b56108d2565b156109e457601a6019548154811015156109cb57fe5b90600052602060002090600a0201600201549050610922565b50600d54610922565b610a0333600035600160e060020a031916612379565b1515610a0e57600080fd5b6001805473ffffffffffffffffffffffffffffffffffffffff1916600160a060020a0383811691909117918290556040519116907fce241d7ca1f669fee44b6fc00b8eba2df3bb514eed0f6f668f8f89096e81ed9490600090a250565b601a805482908110610a7957fe5b6000918252602091829020600a9190910201805460018201546002830154600384015460048501546005860154600687015460078801546040805180820190915260088a0154815260099099015499890199909952959850939692959194909392600160a060020a0382169260a060020a90920467ffffffffffffffff169164ffffffffff82169165010000000000810463ffffffff9081169269010000000000000000008304909116916d0100000000000000000000000000900460ff16908d565b60008060008060008030600160a060020a031663a035b1fe6040518163ffffffff1660e060020a028152600401602060405180830381600087803b158015610b8357600080fd5b505af1158015610b97573d6000803e3d6000fd5b505050506040513d6020811015610bad57600080fd5b5051604080517f6b31ee0100000000000000000000000000000000000000000000000000000000815290519197503091636b31ee01916004808201926020929091908290030181600087803b158015610c0557600080fd5b505af1158015610c19573d6000803e3d6000fd5b505050506040513d6020811015610c2f57600080fd5b5051604080517f934aa0230000000000000000000000000000000000000000000000000000000081529051919650309163934aa023916004808201926020929091908290030181600087803b158015610c8757600080fd5b505af1158015610c9b573d6000803e3d6000fd5b505050506040513d6020811015610cb157600080fd5b5051604080517f29dcb0cf000000000000000000000000000000000000000000000000000000008152905191955030916329dcb0cf916004808201926020929091908290030181600087803b158015610d0957600080fd5b505af1158015610d1d573d6000803e3d6000fd5b505050506040513d6020811015610d3357600080fd5b5051604080517f682e60a90000000000000000000000000000000000000000000000000000000081529051919450309163682e60a9916004808201926020929091908290030181600087803b158015610d8b57600080fd5b505af1158015610d9f573d6000803e3d6000fd5b505050506040513d6020811015610db557600080fd5b5051604080517fec18ca9c0000000000000000000000000000000000000000000000000000000081529051919350309163ec18ca9c916004808201926020929091908290030181600087803b158015610e0d57600080fd5b505af1158015610e21573d6000803e3d6000fd5b505050506040513d6020811015610e3757600080fd5b5051959694959394929391929050565b6000610ec530600160a060020a031663682e60a96040518163ffffffff1660e060020a028152600401602060405180830381600087803b158015610e8a57600080fd5b505af1158015610e9e573d6000803e3d6000fd5b505050506040513d6020811015610eb457600080fd5b50516008549063ffffffff61248216565b905090565b6000601a601954815481101515610edd57fe5b90600052602060002090600a020160060160149054906101000a900467ffffffffffffffff16905090565b6000610f126108d2565b15610f5257601a601954815481101515610f2857fe5b60009182526020909120600a909102016007015465010000000000900463ffffffff169050610922565b50600b5463ffffffff16610922565b60025481565b60135460145482565b60115460125482565b3360009081526017602052604081206001015411610fe1576040805160e560020a62461bcd02815260206004820152601260248201527f4e6f7468696e6720746f20646f6e617465210000000000000000000000000000604482015290519081900360640190fd5b33600090815260176020526040902060018101546110029190601590612492565b565b61101a33600035600160e060020a031916612379565b151561102557600080fd5b60015460125461100291601191600160a060020a0390911690612515565b61105933600035600160e060020a031916612379565b151561106457600080fd5b60008035600160e060020a03191681526018602052604090205462e6b68090429061108f9083612482565b111561109a57600080fd5b60008035600160e060020a0319168152601860205260409020429055600160a060020a03821615156110cb57600080fd5b60108054600160a060020a03841673ffffffffffffffffffffffffffffffffffffffff19909116811790915560408051918252517fe9bff25f57a144aa43858ad7e8e92a992af00ce7a2704f116861b96000f457ec9181900360200190a15050565b60006111376108d2565b156109a357601a60195481548110151561114d57fe5b600091825260209091206007600a90920201015464ffffffffff169050610922565b60006111796108d2565b156111dc576111d5601a60195481548110151561119257fe5b90600052602060002090600a020160040154601a6019548154811015156111b557fe5b600091825260209091206009600a9092020101549063ffffffff61264016565b9050610922565b600f546014546111d59163ffffffff61264016565b6000601a8281548110151561120257fe5b90600052602060002090600a0201905061121b81611d62565b5050565b601b5460ff1681565b60006112326108d2565b1561126157601a60195481548110151561124857fe5b90600052602060002090600a0201600401549050610922565b50600f54610922565b601054600160a060020a031681565b61128f33600035600160e060020a031916612379565b151561129a57600080fd5b6000805473ffffffffffffffffffffffffffffffffffffffff1916600160a060020a03838116919091178083556040519116917f1abebea81bfa2637f28358c371278fb15ede7ea8dd28d2e03b112ff6d936ada491a250565b600154600160a060020a031681565b600061130c6108d2565b15611348576111d5601a60195481548110151561132557fe5b90600052602060002090600a020160030154601a6019548154811015156111b557fe5b600e546014546111d59163ffffffff61264016565b60006113676108d2565b1561139657601a60195481548110151561137d57fe5b90600052602060002090600a0201600001549050610922565b50600954610922565b600160a060020a031660009081526017602052604090206001015490565b6113d333600035600160e060020a031916612379565b15156113de57600080fd5b8364e8d4a51000678ac7230489e800008183101580156113fe5750808311155b151561140957600080fd5b85670de0b6b3a7640000678ac7230489e8000081831080159061142c5750808311155b151561143757600080fd5b8763ffffffff16601e62093a808183101580156114545750808311155b151561145f57600080fd5b8c6009819055508b600a819055508a600b60046101000a81548163ffffffff021916908363ffffffff16021790555089600b60006101000a81548163ffffffff021916908363ffffffff1602179055507fba0488b18639349657ed3fa0cacf2d3fd8352aad74cf78575306bca3535688938d8b8d8f604051808581526020018463ffffffff1663ffffffff1681526020018363ffffffff1663ffffffff16815260200182815260200194505050505060405180910390a150505050505050505050505050565b60075481565b600061154333600035600160e060020a031916612379565b151561154e57600080fd5b601b805460ff19169055601a54156115e957601a60195481548110151561157157fe5b90600052602060002090600a0201905080600701600d9054906101000a900460ff1615156115e9576040805160e560020a62461bcd02815260206004820152601c60248201527f4c6173742063616d706169676e206e6f742066696e616c697a65642100000000604482015290519081900360640190fd5b6115f16108d2565b15156108cf576115ff612059565b601a60195481548110151561161057fe5b90600052602060002090600a020190506108cf816008013334611ceb565b60055481565b600054600160a060020a031681565b33600090815260176020526040812060010154116116ab576040805160e560020a62461bcd02815260206004820152601460248201527f4e6f7468696e6720746f20776974686472617721000000000000000000000000604482015290519081900360640190fd5b33600081815260176020526040902060018101546110029290612515565b60045490565b60006116d96108d2565b1561170857601a6019548154811015156116ef57fe5b90600052602060002090600a0201600101549050610922565b50600a54610922565b6000610ec530600160a060020a031663934aa0236040518163ffffffff1660e060020a028152600401602060405180830381600087803b15801561175457600080fd5b505af1158015611768573d6000803e3d6000fd5b505050506040513d602081101561177e57600080fd5b50516006549063ffffffff61248216565b60095481565b6117ab33600035600160e060020a031916612379565b15156117b657600080fd5b6117d6816117ca858563ffffffff61248216565b9063ffffffff61248216565b6000670de0b6b3a76400008183101580156117f15750808311155b15156117fc57600080fd5b60008035600160e060020a031916815260186020526040902054621275009042906118279083612482565b111561183257600080fd5b60008035600160e060020a0319168152601860205260409020429055670de0b6b3a764000086111561186357600080fd5b6702c68af0bb14000087111561187857600080fd5b67016345785d8a000085111561188d57600080fd5b600d879055600e869055600c8590556118c6856118ba8881670de0b6b3a76400008c63ffffffff61267716565b9063ffffffff61267716565b600f819055604080518981526020810189905280820192909252517f0b22d042ca4d52f7ed18250a188ec6ea8d8be78595e40514596b8d768e4564689181900360600190a150505050505050565b60195481565b601a54600090156109a357601a60195481548110151561193657fe5b600091825260209091206006600a909202010154600160a060020a03169050610922565b6000601a60195481548110151561196d57fe5b90600052602060002090600a020190506108cf81611d62565b60006119906108d2565b156119d457601a6019548154811015156119a657fe5b60009182526020909120600a90910201600701546901000000000000000000900463ffffffff169050610922565b50600b54640100000000900463ffffffff16610922565b60006119f56108d2565b15611a2457601a601954815481101515611a0b57fe5b90600052602060002090600a0201600301549050610922565b50600e54610922565b611a4333600035600160e060020a031916612379565b1515611a4e57600080fd5b6010546016546108cf91601591600160a060020a039091169084612687565b60008060006007549250600654915030600160a060020a0316632741876a6040518163ffffffff1660e060020a028152600401602060405180830381600087803b158015611aba57600080fd5b505af1158015611ace573d6000803e3d6000fd5b505050506040513d6020811015611ae457600080fd5b505192939192919050565b60068101544260a060020a90910467ffffffffffffffff161015611b5d576040805160e560020a62461bcd02815260206004820152600f60248201527f416674657220646561646c696e65210000000000000000000000000000000000604482015290519081900360640190fd5b8054341015611bb6576040805160e560020a62461bcd02815260206004820152601160248201527f4e6f7420656e6f7567682076616c756521000000000000000000000000000000604482015290519081900360640190fd5b60078101805464ffffffffff198116600164ffffffffff92831601821617918290556006830180543373ffffffffffffffffffffffffffffffffffffffff1990911617905565010000000000820463ffffffff169116811515611c1557fe5b0664ffffffffff1660001415611c3e5760018101548154611c3b9163ffffffff61264016565b81555b6006810154604080513381523460208201524267ffffffffffffffff60a060020a90940484160390921682820152517fdffc821040ac850d3cdb1e8c2d587ab1312ed7267098abadf3fd9137172c51c89181900360600190a16007810154611cbe90429063ffffffff690100000000000000000090910481169061248216565b8160060160146101000a81548167ffffffffffffffff021916908367ffffffffffffffff16021790555050565b6001830154611d00908263ffffffff61248216565b6001840155600254611d18908263ffffffff61248216565b6002558254604080518381529051600160a060020a03851692917f8534743902a2fb19639aba9d7882a1a9b06d7a841874192da0738ce3973db0ae919081900360200190a3505050565b60068101546000904260a060020a90910467ffffffffffffffff1610611dd2576040805160e560020a62461bcd02815260206004820152601060248201527f4265666f726520646561646c696e652100000000000000000000000000000000604482015290519081900360640190fd5b60078201546d0100000000000000000000000000900460ff1615611e40576040805160e560020a62461bcd02815260206004820152601260248201527f416c72656164792066696e616c697a6564210000000000000000000000000000604482015290519081900360640190fd5b506009810154600782015464ffffffffff161561204a576006820154600160a060020a031660009081526017602052604090206004830154611e97916008850191611e9290859063ffffffff61264016565b612492565b6006820154600160a060020a03166000818152601760205260409020556004820154611edd90611ece90839063ffffffff61264016565b6007549063ffffffff61248216565b6007556002820154611f02906008840190601190611e9290859063ffffffff61264016565b611f2b611f1c83600201548361264090919063ffffffff16565b6005549063ffffffff61248216565b6005556003820154611f50906008840190601590611e9290859063ffffffff61264016565b611f79611f6a83600301548361264090919063ffffffff16565b6006549063ffffffff61248216565b6006556009820154611f92906008840190601390612492565b6007820154600854611fb09164ffffffffff1663ffffffff61248216565b6008556007820180546dff0000000000000000000000000019166d0100000000000000000000000000179055600682015460048301547f56b84851a1cd72311b185b7510e0e8d5aa69f8755dcc43463ebfe959bb1614f891600160a060020a03169061202390849063ffffffff61264016565b60408051600160a060020a03909316835260208301919091528051918290030190a161121b565b61121b82600801601383612492565b6000806120646108d2565b156120b9576040805160e560020a62461bcd02815260206004820152601e60248201527f412063616d706169676e20697320616c72656164792072756e6e696e67210000604482015290519081900360640190fd5b670de0b6b3a76400006120e5600c546117ca600f546117ca600e54600d5461248290919063ffffffff16565b1461213a576040805160e560020a62461bcd02815260206004820152601860248201527f4163636f756e74696e6720697320696e636f7272656374210000000000000000604482015290519081900360640190fd5b601a80549061214c906001830161282a565b9150601a8281548110151561215d57fe5b600091825260209091206019849055600954600a92830290910190815590546001820155600d546002820155600e546003820155600f546004820155600c546005820155600b549091506121c490429063ffffffff64010000000090910481169061248216565b6006820180547fffffffff0000000000000000ffffffffffffffffffffffffffffffffffffffff1660a060020a67ffffffffffffffff9390931692909202919091179055600b805460078301805468ffffffff0000000000191663ffffffff92831665010000000000021780825592546cffffffff00000000000000000019909316640100000000909304909116690100000000000000000002919091179055601954604080517f546f74616c00000000000000000000000000000000000000000000000000000060208083019190915260258083019490945282518083039094018452604590910191829052825182918401908083835b602083106122db5780518252601f1990920191602091820191016122bc565b5181516020939093036101000a600019018019909116921691909117905260405192018290039091206008850190815560145461231f945060139350909150612492565b6009810154600b546019546040805193845264010000000090920463ffffffff16602084015282820152517f6a2b8b9a3942a8abc58fb4ae0c546618d960d0bc856f995b545464becc5be272916060908290030190a15050565b6000600160a060020a0383163014156123945750600161247c565b600154600160a060020a03848116911614156123b25750600161247c565b600054600160a060020a031615156123cc5750600061247c565b60008054604080517fb7009613000000000000000000000000000000000000000000000000000000008152600160a060020a038781166004830152306024830152600160e060020a0319871660448301529151919092169263b700961392606480820193602093909283900390910190829087803b15801561244d57600080fd5b505af1158015612461573d6000803e3d6000fd5b505050506040513d602081101561247757600080fd5b505190505b92915050565b8082018281101561247c57600080fd5b60018301548111156124a357600080fd5b60018301546124b8908263ffffffff61267716565b6001808501919091558201546124d4908263ffffffff61248216565b6001830155815483546040805184815290517f91394ae08f7d57415c1c2ac6886394ef2c7634274779088733b60f7504831cef9181900360200190a3505050565b60015460a060020a900460ff161561252c57600080fd5b6001805474ff0000000000000000000000000000000000000000191660a060020a17815583015481111561255f57600080fd5b600160a060020a038216151561257457600080fd5b6001830154612589908263ffffffff61267716565b60018401556002546125a1908263ffffffff61267716565b600255604051600160a060020a0383169082156108fc029083906000818181858888f193505050501580156125da573d6000803e3d6000fd5b508254604080518381529051600160a060020a03851692917fa3e8292cffffe79590527099bf9d852a1160f38b284cc5124afa894201c0f256919081900360200190a350506001805474ff00000000000000000000000000000000000000001916905550565b6000670de0b6b3a76400006126666126588585612802565b6706f05b59d3b20000612482565b81151561266f57fe5b049392505050565b8082038281111561247c57600080fd5b60015460a060020a900460ff161561269e57600080fd5b6001805474ff0000000000000000000000000000000000000000191660a060020a1781558401548211156126d157600080fd5b600160a060020a03831615156126e657600080fd5b60018401546126fb908363ffffffff61267716565b6001850155600254612713908363ffffffff61267716565b60028190555082600160a060020a0316828260405180828051906020019080838360005b8381101561274f578181015183820152602001612737565b50505050905090810190601f16801561277c5780820380516001836020036101000a031916815260200191505b5091505060006040518083038185875af192505050151561279c57600080fd5b8354604080518481529051600160a060020a03861692917fa3e8292cffffe79590527099bf9d852a1160f38b284cc5124afa894201c0f256919081900360200190a350506001805474ff0000000000000000000000000000000000000000191690555050565b600081158061281f57505080820282828281151561281c57fe5b04145b151561247c57600080fd5b81548183558181111561285657600a0281600a028360005260206000209182019101612856919061285b565b505050565b61092291905b808211156128d05760008082556001820181905560028201819055600382018190556004820181905560058201819055600682018054600160e060020a03191690556007820180546dffffffffffffffffffffffffffff19169055600882018190556009820155600a01612861565b50905600a165627a7a72305820600355dca74350f71591c53f04be318ea8aff3a711750f13d0153798efe6cf510029",
  "source": "pragma solidity^0.4.21;\r\n\r\nimport \"./lib/ds-auth/auth.sol\";\r\nimport \"./accounting/contracts/Accounting.sol\";\r\n\r\ncontract ButtonBase is DSAuth, SimpleAccounting {\r\n\r\n    using DSMath for uint;\r\n\r\n    uint constant ONE_PERCENT_WAD = 10 ** 16;// 1 wad is 10^18, so 1% in wad is 10^16\r\n    uint constant ONE_WAD = 10 ** 18;\r\n\r\n    uint public totalRevenue;\r\n    uint public totalCharity;\r\n    uint public totalWon;\r\n\r\n    uint public totalPresses;\r\n\r\n    uint public startingPrice = 1 finney;\r\n    uint internal _priceMultiplier = 105 * 10 **16;\r\n    uint32 internal _n = 3; //increase the price after every n presses\r\n    uint32 internal _period = 3 minutes;// what's the period for pressing the button\r\n    uint internal _newCampaignFraction = ONE_PERCENT_WAD / 2; //0.5%\r\n    uint internal _devFraction = 10 * ONE_PERCENT_WAD - _newCampaignFraction; //9.5%\r\n    uint internal _charityFraction = 5 * ONE_PERCENT_WAD; //5%\r\n    uint internal _jackpotFraction = 85 * ONE_PERCENT_WAD;\r\n    \r\n    address public charityBeneficiary;\r\n\r\n    Account public revenue = \r\n    Account({\r\n        name: \"Revenue\",\r\n        balance: 0\r\n    });\r\n\r\n    Account public nextCampaign = \r\n    Account({\r\n        name: \"Next Campaign\",\r\n        balance: 0       \r\n    });\r\n\r\n    Account public charity = \r\n    Account({\r\n        name: \"Charity\",\r\n        balance: 0\r\n    });\r\n\r\n    mapping (address => Account) winners;\r\n\r\n    modifier limited(uint value, uint min, uint max) {\r\n        require(value >= min && value <= max);\r\n        _;\r\n    }\r\n\r\n    mapping (bytes4 => uint) internal _lastExecuted;\r\n    modifier timeLimited(uint _howOften) {\r\n        require(_lastExecuted[msg.sig].add(_howOften) <= now);\r\n        _lastExecuted[msg.sig] = now;\r\n        _;\r\n    }\r\n\r\n    event Pressed(address by, uint paid, uint64 timeLeft);\r\n    event Started(uint startingETH, uint32 period, uint i);\r\n    event Winrar(address guy, uint jackpot);\r\n\r\n    event CharityChanged(address newCharityBeneficiary);\r\n    event ButtonParamsChanged(uint startingPrice, uint32 n, uint32 period, uint priceMul);\r\n    event AccountingParamsChanged(uint devFraction, uint charityFraction, uint jackpotFraction);\r\n\r\n    struct ButtonCampaign {\r\n        uint price;        \r\n        uint priceMultiplier;\r\n        uint devFraction;\r\n        uint charityFraction;\r\n        uint jackpotFraction;\r\n        uint newCampaignFraction;\r\n\r\n        address lastPresser;\r\n        uint64 deadline;\r\n        uint40 presses;\r\n        uint32 n;\r\n        uint32 period;\r\n        bool finalized;\r\n\r\n        Account total;       \r\n    }\r\n\r\n    uint public lastCampaignID;\r\n    ButtonCampaign[] public campaigns;\r\n\r\n    function press() public payable;\r\n    \r\n    function () public payable {\r\n        press();\r\n    }\r\n\r\n    function latestData() external view returns(\r\n        uint price, uint jackpot, uint char, uint64 deadline, uint presses, address lastPresser\r\n        ) {\r\n        price = this.price();\r\n        jackpot = this.jackpot();\r\n        char = this.charity();\r\n        deadline = this.deadline();\r\n        presses = this.presses();\r\n        lastPresser = this.lastPresser();\r\n    }\r\n\r\n    function totalsData() external view returns(uint _totalWon, uint _totalCharity, uint _totalPresses) {\r\n        _totalWon = totalWon;\r\n        _totalCharity = totalCharity;\r\n        _totalPresses = this.totalPresses();\r\n    }\r\n   \r\n    function price() external view returns(uint) {\r\n        if(active()) {\r\n            return campaigns[lastCampaignID].price;\r\n        } else {\r\n            return startingPrice;\r\n        }\r\n    }\r\n\r\n    function jackpotFraction() public view returns(uint) {\r\n        if(active()) {\r\n            return campaigns[lastCampaignID].jackpotFraction;\r\n        } else {\r\n            return _jackpotFraction;\r\n        }\r\n    }\r\n\r\n    function revenueFraction() public view returns(uint) {\r\n        if(active()) {\r\n            return campaigns[lastCampaignID].devFraction;\r\n        } else {\r\n            return _devFraction;\r\n        }\r\n    }\r\n\r\n    function charityFraction() public view returns(uint) {\r\n        if(active()) {\r\n            return campaigns[lastCampaignID].charityFraction;\r\n        } else {\r\n            return _charityFraction;\r\n        }\r\n    }\r\n\r\n    function priceMultiplier() public view returns(uint) {\r\n        if(active()) {\r\n            return campaigns[lastCampaignID].priceMultiplier;\r\n        } else {\r\n            return _priceMultiplier;\r\n        }\r\n    }\r\n\r\n    function period() public view returns(uint) {\r\n        if(active()) {\r\n            return campaigns[lastCampaignID].period;\r\n        } else {\r\n            return _period;\r\n        }\r\n    }\r\n\r\n    function n() public view returns(uint) {\r\n        if(active()) {\r\n            return campaigns[lastCampaignID].n;\r\n        } else {\r\n            return _n;\r\n        }\r\n    }\r\n\r\n    function timeLeft() external view returns(uint) {\r\n        if (active()) {\r\n            return campaigns[lastCampaignID].deadline - now;\r\n        } else {\r\n            return 0;\r\n        }\r\n    }\r\n\r\n    function deadline() external view returns(uint64) {\r\n        return campaigns[lastCampaignID].deadline;\r\n    }\r\n\r\n    function jackpot() external view returns(uint) {\r\n        if(active()) {\r\n            return campaigns[lastCampaignID].total.balance.wmul(campaigns[lastCampaignID].jackpotFraction);\r\n        } else {\r\n            return nextCampaign.balance.wmul(_jackpotFraction);\r\n        }\r\n    }\r\n\r\n    function presses() external view returns(uint) {\r\n        if(active()) {\r\n            return campaigns[lastCampaignID].presses;\r\n        } else {\r\n            return 0;\r\n        }\r\n    }\r\n\r\n    function lastPresser() external view returns(address) {\r\n        if(campaigns.length != 0) {\r\n            return campaigns[lastCampaignID].lastPresser;\r\n        } else {\r\n            return address(0);\r\n        }\r\n    }\r\n\r\n    function totalPresses() external view returns(uint) {\r\n        return totalPresses.add(this.presses());\r\n    }\r\n\r\n    function charity() external view returns(uint) {\r\n        if(active()) {\r\n            return campaigns[lastCampaignID].total.balance.wmul(campaigns[lastCampaignID].charityFraction);\r\n        } else {\r\n            return nextCampaign.balance.wmul(_charityFraction);\r\n        }\r\n    }\r\n\r\n    function totalCharity() external view returns(uint) {\r\n        return totalCharity.add(this.charity());\r\n    }\r\n\r\n    function active() public view returns(bool) {\r\n        if(campaigns.length == 0) { \r\n            return false;\r\n        } else {\r\n            return campaigns[lastCampaignID].deadline >= now;\r\n        }\r\n    }\r\n\r\n    function hasWon(address _guy) external view returns(uint) {\r\n        return winners[_guy].balance;\r\n    }\r\n\r\n    function withdrawJackpot() public {\r\n        require(winners[msg.sender].balance > 0, \"Nothing to withdraw!\");\r\n        sendETH(winners[msg.sender], msg.sender, winners[msg.sender].balance);\r\n    }\r\n\r\n    function donateJackpot() public {\r\n        require(winners[msg.sender].balance > 0, \"Nothing to donate!\");\r\n        transferETH(winners[msg.sender], charity, winners[msg.sender].balance);\r\n    }\r\n\r\n    function withdrawRevenue() public auth {\r\n        sendETH(revenue, owner, revenue.balance);\r\n    }\r\n\r\n    function sendCharityETH(bytes callData) public auth {\r\n        // donation receiver might be a contract, so transact instead of a simple send\r\n        transact(charity, charityBeneficiary, charity.balance, callData);\r\n    }\r\n\r\n    function setButtonParams(uint startingPrice_, uint priceMul_, uint32 period_, uint32 n_) public \r\n    auth\r\n    limited(startingPrice_, 1 szabo, 10 ether)\r\n    limited(priceMul_, ONE_WAD, 10 * ONE_WAD)\r\n    limited(period_, 30 seconds, 1 weeks)\r\n    {\r\n        startingPrice = startingPrice_;\r\n        _priceMultiplier = priceMul_;\r\n        _period = period_;\r\n        _n = n_;\r\n        emit ButtonParamsChanged(startingPrice_, n_, period_, priceMul_);\r\n    }\r\n\r\n    function setAccountingParams(uint _devF, uint _charityF, uint _newCampF) public \r\n    auth\r\n    limited(_devF.add(_charityF).add(_newCampF), 0, ONE_WAD) // up to 100% - charity fraction could be set to 100% for special occasions\r\n    timeLimited(2 weeks) { // can only be changed once every 4 weeks\r\n        require(_charityF <= ONE_WAD); // charity fraction can be up to 100%\r\n        require(_devF <= 20 * ONE_PERCENT_WAD); //can't set the dev fraction to more than 20%\r\n        require(_newCampF <= 10 * ONE_PERCENT_WAD);//less than 10%\r\n        _devFraction = _devF;\r\n        _charityFraction = _charityF;\r\n        _newCampaignFraction = _newCampF;\r\n        _jackpotFraction = ONE_WAD.sub(_devF).sub(_charityF).sub(_newCampF);\r\n        emit AccountingParamsChanged(_devF, _charityF, _jackpotFraction);\r\n    }\r\n\r\n    function setCharityBeneficiary(address _charity) public \r\n    auth\r\n    timeLimited(25 weeks) \r\n    {   \r\n        require(_charity != address(0));\r\n        charityBeneficiary = _charity;\r\n        emit CharityChanged(_charity);\r\n    }\r\n}\r\n\r\n\r\ncontract TheButton is ButtonBase {\r\n    \r\n    using DSMath for uint;\r\n\r\n    bool public stopped;\r\n\r\n    constructor() public {\r\n\r\n    }\r\n\r\n    function press() public payable {\r\n        ButtonCampaign storage c = campaigns[lastCampaignID];\r\n        if (active()) {\r\n            _press(c);\r\n            depositETH(c.total, msg.sender, msg.value);\r\n        } else {  \r\n            require(!stopped, \"Contract stopped!\");//the contract can be stopped \r\n            if(!c.finalized) {\r\n                _finalizeCampaign(c);\r\n            } \r\n            _newCampaign();\r\n            c = campaigns[lastCampaignID];\r\n                    \r\n            _press(c);\r\n            depositETH(c.total, msg.sender, msg.value);\r\n        } \r\n    }\r\n\r\n    function start() external payable auth {\r\n        stopped = false;\r\n        \r\n        if(campaigns.length != 0) {//if there was a past campaign\r\n            ButtonCampaign storage c = campaigns[lastCampaignID];\r\n            require(c.finalized, \"Last campaign not finalized!\");//make sure it was finalized\r\n        }     \r\n\r\n        if(!active()) {\r\n            _newCampaign();\r\n            c = campaigns[lastCampaignID];\r\n            depositETH(c.total, msg.sender, msg.value);\r\n        }\r\n    }\r\n\r\n    ///Stopping will only affect new campaigns, not already running ones\r\n    function stop() external auth {\r\n        stopped = true;\r\n    }\r\n\r\n    function finalizeLastCampaign() external {\r\n        ButtonCampaign storage c = campaigns[lastCampaignID];\r\n        _finalizeCampaign(c);\r\n    }\r\n\r\n    function finalizeCampaign(uint id) external {\r\n        ButtonCampaign storage c = campaigns[id];\r\n        _finalizeCampaign(c);\r\n    }\r\n\r\n    function _press(ButtonCampaign storage c) internal {\r\n        require(c.deadline >= now, \"After deadline!\");\r\n        require(msg.value >= c.price, \"Not enough value!\");\r\n        c.presses += 1;//no need for safe math, as it is not a critical calculation\r\n        c.lastPresser = msg.sender;\r\n             \r\n        if(c.presses % c.n == 0) {\r\n            c.price = c.price.wmul(c.priceMultiplier);\r\n        }           \r\n\r\n        emit Pressed(msg.sender, msg.value, c.deadline - uint64(now));\r\n        c.deadline = uint64(now.add(c.period));\r\n    }\r\n\r\n    function _newCampaign() internal {\r\n        require(!active(), \"A campaign is already running!\");\r\n        require(_devFraction.add(_charityFraction).add(_jackpotFraction).add(_newCampaignFraction) == ONE_WAD, \"Accounting is incorrect!\");\r\n        \r\n        uint _campaignID = campaigns.length++;\r\n        ButtonCampaign storage c = campaigns[_campaignID];\r\n        lastCampaignID = _campaignID;\r\n\r\n        c.price = startingPrice;\r\n        c.priceMultiplier = _priceMultiplier;\r\n        c.devFraction = _devFraction;\r\n        c.charityFraction = _charityFraction;\r\n        c.jackpotFraction = _jackpotFraction;\r\n        c.newCampaignFraction = _newCampaignFraction;\r\n        c.deadline = uint64(now.add(_period));\r\n        c.n = _n;\r\n        c.period = _period;\r\n        c.total.name = keccak256(abi.encodePacked(\"Total\", lastCampaignID));       \r\n        transferETH(nextCampaign, c.total, nextCampaign.balance);\r\n        emit Started(c.total.balance, _period, lastCampaignID); \r\n    }\r\n\r\n    function _finalizeCampaign(ButtonCampaign storage c) internal {\r\n        require(c.deadline < now, \"Before deadline!\");\r\n        require(!c.finalized, \"Already finalized!\");\r\n        \r\n        uint totalBalance = c.total.balance;\r\n\r\n        if(c.presses != 0) {\r\n            \r\n            transferETH(c.total, winners[c.lastPresser], totalBalance.wmul(c.jackpotFraction));\r\n            winners[c.lastPresser].name = bytes32(c.lastPresser);\r\n            totalWon = totalWon.add(totalBalance.wmul(c.jackpotFraction));\r\n\r\n            transferETH(c.total, revenue, totalBalance.wmul(c.devFraction));\r\n            totalRevenue = totalRevenue.add(totalBalance.wmul(c.devFraction));\r\n\r\n            transferETH(c.total, charity, totalBalance.wmul(c.charityFraction));\r\n            totalCharity = totalCharity.add(totalBalance.wmul(c.charityFraction));\r\n\r\n            //avoiding rounding errors - just transfer the leftover\r\n            transferETH(c.total, nextCampaign, c.total.balance);\r\n\r\n            totalPresses = totalPresses.add(c.presses);\r\n\r\n            c.finalized = true;\r\n            emit Winrar(c.lastPresser, totalBalance.wmul(c.jackpotFraction));\r\n        } else {\r\n            transferETH(c.total, nextCampaign, totalBalance);\r\n        }\r\n    }\r\n}",
  "sourcePath": "C:\\Users\\Paskal\\Documents\\The_Button\\thebutton\\contracts\\TheButton.sol",
  "compiler": {
    "name": "solc",
    "version": "0.4.24+commit.e67f0147.Emscripten.clang"
  },
  "schemaVersion": "2.0.0",
  "updatedAt": "2018-06-25T08:26:51.716Z"
}