{
  "contractName": "SimpleAccounting",
  "abi": [
    {
      "constant": true,
      "inputs": [],
      "name": "totalETH",
      "outputs": [
        {
          "name": "",
          "type": "uint256"
        }
      ],
      "payable": false,
      "stateMutability": "view",
      "type": "function"
    },
    {
      "anonymous": false,
      "inputs": [
        {
          "indexed": true,
          "name": "account",
          "type": "bytes32"
        },
        {
          "indexed": true,
          "name": "from",
          "type": "address"
        },
        {
          "indexed": false,
          "name": "value",
          "type": "uint256"
        }
      ],
      "name": "ETHDeposited",
      "type": "event"
    },
    {
      "anonymous": false,
      "inputs": [
        {
          "indexed": true,
          "name": "account",
          "type": "bytes32"
        },
        {
          "indexed": true,
          "name": "to",
          "type": "address"
        },
        {
          "indexed": false,
          "name": "value",
          "type": "uint256"
        }
      ],
      "name": "ETHSent",
      "type": "event"
    },
    {
      "anonymous": false,
      "inputs": [
        {
          "indexed": true,
          "name": "fromAccount",
          "type": "bytes32"
        },
        {
          "indexed": true,
          "name": "toAccount",
          "type": "bytes32"
        },
        {
          "indexed": false,
          "name": "value",
          "type": "uint256"
        }
      ],
      "name": "ETHTransferred",
      "type": "event"
    },
    {
      "constant": true,
      "inputs": [],
      "name": "baseETHBalance",
      "outputs": [
        {
          "name": "",
          "type": "uint256"
        }
      ],
      "payable": false,
      "stateMutability": "view",
      "type": "function"
    }
  ],
  "bytecode": "0x60c06040527f42617365000000000000000000000000000000000000000000000000000000006080819052600060a081905260029190915560035534801561004657600080fd5b5060bb806100556000396000f30060806040526004361060485763ffffffff7c010000000000000000000000000000000000000000000000000000000060003504166336bdee748114604d578063cb146814146071575b600080fd5b348015605857600080fd5b50605f6083565b60408051918252519081900360200190f35b348015607c57600080fd5b50605f6089565b60015481565b600354905600a165627a7a7230582067c193e3dfcd7a7e6ad03bcdd87c2b11fd2806d3bc6c03c5570929c486b3c3da0029",
  "source": "/**\r\n    @title: Accounting\r\n    @dev: various base contracts with accounting functionality\r\n    @author: Paskal S\r\n */\r\n\r\npragma solidity^0.4.21;\r\n\r\nimport \"./math-lib.sol\";\r\n\r\ninterface ERC20 {\r\n    function balanceOf(address src) external view returns (uint);\r\n    function totalSupply() external view returns (uint);\r\n    function allowance(address tokenOwner, address spender) external constant returns (uint remaining);\r\n    function transfer(address to, uint tokens) external returns (bool success);\r\n    function approve(address spender, uint tokens) external returns (bool success);\r\n    function transferFrom(address from, address to, uint tokens) external returns (bool success);\r\n}\r\n\r\ninterface DSValue {\r\n    function peek() external constant returns (bytes32, bool);\r\n    function read() external constant returns (bytes32);\r\n}\r\n\r\n\r\n/**\r\n    a simple base contract with accounting functionality for ETH only accounts\r\n */\r\ncontract SimpleAccounting {\r\n\r\n    using DSMath for uint;\r\n\r\n    bool internal _in;\r\n    \r\n    modifier noReentrance() {\r\n        require(!_in);\r\n        _in = true;\r\n        _;\r\n        _in = false;\r\n    }\r\n    \r\n    //We need to keep track of the total ETH ourselves as this.balance is unreliable\r\n    uint public totalETH;\r\n\r\n    //A simple account has a balance and a name\r\n    struct Account {\r\n        bytes32 name;\r\n        uint balance;        \r\n    }\r\n\r\n    //There's always a base account\r\n    Account base = Account({\r\n        name: \"Base\",\r\n        balance: 0        \r\n    });\r\n\r\n    event ETHDeposited(bytes32 indexed account, address indexed from, uint value);\r\n    event ETHSent(bytes32 indexed account, address indexed to, uint value);\r\n    event ETHTransferred(bytes32 indexed fromAccount, bytes32 indexed toAccount, uint value);\r\n\r\n    function baseETHBalance() public constant returns(uint) {\r\n        return base.balance;\r\n    }\r\n\r\n    function depositETH(Account storage a, address _from, uint _value) internal {\r\n        a.balance = a.balance.add(_value);\r\n        totalETH = totalETH.add(_value);\r\n        emit ETHDeposited(a.name, _from, _value); \r\n    }\r\n\r\n    function sendETH(Account storage a, address _to, uint _value) \r\n    internal noReentrance \r\n    {\r\n        require(a.balance >= _value);\r\n        require(_to != address(0));\r\n        \r\n        a.balance = a.balance.sub(_value);\r\n        totalETH = totalETH.sub(_value);\r\n\r\n        _to.transfer(_value);\r\n        \r\n        emit ETHSent(a.name, _to, _value);\r\n    }\r\n\r\n    function transact(Account storage a, address _to, uint _value, bytes data) \r\n    internal noReentrance \r\n    {\r\n        require(a.balance >= _value);\r\n        require(_to != address(0));\r\n        \r\n        a.balance = a.balance.sub(_value);\r\n        totalETH = totalETH.sub(_value);\r\n\r\n        require(_to.call.value(_value)(data));\r\n        \r\n        emit ETHSent(a.name, _to, _value);\r\n    }\r\n\r\n    function transferETH(Account storage _from, Account storage _to, uint _value) \r\n    internal \r\n    {\r\n        require(_from.balance >= _value);\r\n        _from.balance = _from.balance.sub(_value);\r\n        _to.balance = _to.balance.add(_value);\r\n        emit ETHTransferred(_from.name, _to.name, _value);\r\n    }\r\n\r\n    /**\r\n        @notice we can balance surpluses to an account - e.g. if this.balance increases without our accounting, we can balance the surplus to an account\r\n     */\r\n    function balance(Account storage toAccount,  uint _value) internal {\r\n        require(address(this).balance >= totalETH.add(_value));\r\n        depositETH(toAccount, 0x0, _value);\r\n    }\r\n\r\n}\r\n\r\n/**\r\n a base contract with accounting functionality for ETH and ERC20 tokens\r\n */\r\ncontract Accounting {\r\n\r\n    using DSMath for uint;\r\n\r\n    bool internal _in;\r\n    \r\n    modifier noReentrance() {\r\n        require(!_in);\r\n        _in = true;\r\n        _;\r\n        _in = false;\r\n    }\r\n    \r\n    //keeping track of total ETH and token balances\r\n    uint public totalETH;\r\n    mapping (address => uint) public totalTokenBalances;\r\n\r\n    struct Account {\r\n        bytes32 name;\r\n        uint balanceETH;\r\n        mapping (address => uint) tokenBalances;\r\n    }\r\n\r\n    Account base = Account({\r\n        name: \"Base\",\r\n        balanceETH: 0       \r\n    });\r\n\r\n    event ETHDeposited(bytes32 indexed account, address indexed from, uint value);\r\n    event ETHSent(bytes32 indexed account, address indexed to, uint value);\r\n    event ETHTransferred(bytes32 indexed fromAccount, bytes32 indexed toAccount, uint value);\r\n    event TokenTransferred(bytes32 indexed fromAccount, bytes32 indexed toAccount, address indexed token, uint value);\r\n    event TokenDeposited(bytes32 indexed account, address indexed token, address indexed from, uint value);    \r\n    event TokenSent(bytes32 indexed account, address indexed token, address indexed to, uint value);\r\n\r\n    function baseETHBalance() public constant returns(uint) {\r\n        return base.balanceETH;\r\n    }\r\n\r\n    function baseTokenBalance(address token) public constant returns(uint) {\r\n        return base.tokenBalances[token];\r\n    }\r\n\r\n    function depositETH(Account storage a, address _from, uint _value) internal {\r\n        a.balanceETH = a.balanceETH.add(_value);\r\n        totalETH = totalETH.add(_value);\r\n        emit ETHDeposited(a.name, _from, _value);\r\n    }\r\n\r\n    function depositToken(Account storage a, address _token, address _from, uint _value) \r\n    internal noReentrance \r\n    {        \r\n        require(ERC20(_token).transferFrom(_from, address(this), _value));\r\n        totalTokenBalances[_token] = totalTokenBalances[_token].add(_value);\r\n        a.tokenBalances[_token] = a.tokenBalances[_token].add(_value);\r\n        emit TokenDeposited(a.name, _token, _from, _value);\r\n    }\r\n\r\n    function sendETH(Account storage a, address _to, uint _value) \r\n    internal noReentrance \r\n    {\r\n        require(a.balanceETH >= _value);\r\n        require(_to != address(0));\r\n        \r\n        a.balanceETH = a.balanceETH.sub(_value);\r\n        totalETH = totalETH.sub(_value);\r\n\r\n        _to.transfer(_value);\r\n        \r\n        emit ETHSent(a.name, _to, _value);\r\n    }\r\n\r\n    function transact(Account storage a, address _to, uint _value, bytes data) \r\n    internal noReentrance \r\n    {\r\n        require(a.balanceETH >= _value);\r\n        require(_to != address(0));\r\n        \r\n        a.balanceETH = a.balanceETH.sub(_value);\r\n        totalETH = totalETH.sub(_value);\r\n\r\n        require(_to.call.value(_value)(data));\r\n        \r\n        emit ETHSent(a.name, _to, _value);\r\n    }\r\n\r\n    function sendToken(Account storage a, address _token, address _to, uint _value) \r\n    internal noReentrance \r\n    {\r\n        require(a.tokenBalances[_token] >= _value);\r\n        require(_to != address(0));\r\n        \r\n        a.tokenBalances[_token] = a.tokenBalances[_token].sub(_value);\r\n        totalTokenBalances[_token] = totalTokenBalances[_token].sub(_value);\r\n\r\n        require(ERC20(_token).transfer(_to, _value));\r\n        emit TokenSent(a.name, _token, _to, _value);\r\n    }\r\n\r\n    function transferETH(Account storage _from, Account storage _to, uint _value) \r\n    internal \r\n    {\r\n        require(_from.balanceETH >= _value);\r\n        _from.balanceETH = _from.balanceETH.sub(_value);\r\n        _to.balanceETH = _to.balanceETH.add(_value);\r\n        emit ETHTransferred(_from.name, _to.name, _value);\r\n    }\r\n\r\n    function transferToken(Account storage _from, Account storage _to, address _token, uint _value)\r\n    internal\r\n    {\r\n        require(_from.tokenBalances[_token] >= _value);\r\n        _from.tokenBalances[_token] = _from.tokenBalances[_token].sub(_value);\r\n        _to.tokenBalances[_token] = _to.tokenBalances[_token].add(_value);\r\n        emit TokenTransferred(_from.name, _to.name, _token, _value);\r\n    }\r\n\r\n    function balanceETH(Account storage toAccount,  uint _value) internal {\r\n        require(address(this).balance >= totalETH.add(_value));\r\n        depositETH(toAccount, address(this), _value);\r\n    }\r\n\r\n    function balanceToken(Account storage toAccount, address _token, uint _value) internal noReentrance {\r\n        uint balance = ERC20(_token).balanceOf(this);\r\n        require(balance >= totalTokenBalances[_token].add(_value));\r\n\r\n        toAccount.tokenBalances[_token] = toAccount.tokenBalances[_token].add(_value);\r\n        emit TokenDeposited(toAccount.name, _token, address(this), _value);\r\n    }\r\n    \r\n}\r\n\r\n/**\r\n    a base contract with accounting functionality for accounts with a set allowance of ETH or Dai. The allowance is set as Dai/s and when withdrawing allowance in ETH, the price of ETH/Dai is first checked\r\n */\r\ncontract AllowanceAccounting is Accounting {\r\n    \r\n    ///Dai price feed\r\n    DSValue priceFeed = DSValue(0x729D19f657BD0614b4985Cf1D82531c67569197B);// main net\r\n    ///Dai ERC20 token\r\n    ERC20 stableCoin = ERC20(0x89d24A6b4CcB1B6fAA2625fE562bDD9a23260359);// main net\r\n\r\n\r\n    struct LimitedAccount {\r\n        Account base;\r\n        uint allowance;\r\n        uint lastWithdrawn;\r\n    }\r\n\r\n    function depositETH(LimitedAccount storage a, address _from, uint _value) internal {\r\n        \r\n        depositETH(a.base, _from, _value);\r\n    }\r\n\r\n    function depositDai(LimitedAccount storage a, address _from, uint _value) internal {\r\n        \r\n        depositToken(a.base, stableCoin, _from, _value);\r\n    }\r\n\r\n    function sendETHAllowance(LimitedAccount storage a, address _to) internal {\r\n        require(a.base.balanceETH > 0);\r\n        uint amount;\r\n        \r\n        uint price = uint256(priceFeed.read());\r\n        uint due = a.allowance.mul(now.sub(a.lastWithdrawn));\r\n        amount = due.wdiv(price);\r\n        \r\n        if (amount > a.base.balanceETH) {\r\n            amount = a.base.balanceETH;\r\n        }\r\n\r\n        a.lastWithdrawn = now;\r\n        sendETH(a.base, _to, amount);\r\n    }\r\n\r\n    function transactETHAllowance(LimitedAccount storage a, address _to, bytes data) \r\n    internal noReentrance\r\n    {\r\n        require(a.base.balanceETH > 0);\r\n        uint amount;\r\n        \r\n        uint price = uint256(priceFeed.read());\r\n        uint due = a.allowance.mul(now.sub(a.lastWithdrawn));\r\n        amount = due.wdiv(price);\r\n        \r\n        if (amount > a.base.balanceETH) {\r\n            amount = a.base.balanceETH;\r\n        }\r\n\r\n        a.lastWithdrawn = now;\r\n        transact(a.base, _to, amount, data);\r\n    }\r\n\r\n    function sendDaiAllowance(LimitedAccount storage a, address _to) \r\n    internal \r\n    {\r\n        require(a.base.tokenBalances[stableCoin] > 0);\r\n        \r\n        uint amount;\r\n\r\n        amount = a.allowance.mul(now.sub(a.lastWithdrawn));\r\n        \r\n        if(amount > a.base.tokenBalances[stableCoin]) {\r\n            amount == a.base.tokenBalances[stableCoin];\r\n        }\r\n\r\n        a.lastWithdrawn = now;\r\n        \r\n        sendToken(a.base, stableCoin, _to, amount);\r\n    }\r\n\r\n}\r\n\r\n/**\r\n    a base contract with accounting functionality for ETH and ERC20 tokens. It implements super accounts which can contain numerous sub accounts. The super account can be drained (using all of the sub balances together).\r\n */\r\ncontract SubAccounting is Accounting {\r\n    \r\n    struct SubAccount {\r\n        uint balanceETH;\r\n        mapping (address => uint) tokenBalances;\r\n    }\r\n\r\n    struct SuperAccount {\r\n        Account base;\r\n        mapping (bytes32 => SubAccount) subAccounts;\r\n    }\r\n\r\n    function depositETH(SuperAccount storage super, bytes32 _subKey, address _from, uint _value) internal {\r\n        depositETH(super.base, _from, _value);\r\n        super.subAccounts[_subKey].balanceETH = super.subAccounts[_subKey].balanceETH.add(_value);\r\n    }\r\n\r\n    function depositToken(SuperAccount storage super, bytes32 _subKey, address _token, address _from, uint _value) \r\n    internal  \r\n    {        \r\n        depositToken(super.base, _token, _from, _value);\r\n        super.subAccounts[_subKey].tokenBalances[_token] = super.subAccounts[_subKey].tokenBalances[_token].add(_value);\r\n        // emit TokenDeposited(a.name, _token, _from, _value);\r\n    }\r\n\r\n    ///Transfer from one sub account to another within two separate super accounts\r\n    function transferETH(\r\n        SuperAccount storage _from, \r\n        bytes32 _fromKey,\r\n        SuperAccount storage _to, \r\n        bytes32 _toKey,\r\n        uint _value) \r\n    internal \r\n    {   \r\n        require(_from.subAccounts[_fromKey].balanceETH >= _value);\r\n        transferETH(_from.base, _to.base, _value);        \r\n        _from.subAccounts[_fromKey].balanceETH = _from.subAccounts[_fromKey].balanceETH.sub(_value);\r\n        _to.subAccounts[_toKey].balanceETH = _to.subAccounts[_toKey].balanceETH.add(_value);\r\n    }\r\n\r\n    ///Transfer from one sub account to another within the same super account\r\n    function transferETH(\r\n        SuperAccount storage _super, \r\n        bytes32 _fromKey,\r\n        bytes32 _toKey,\r\n        uint _value) \r\n    internal \r\n    {   \r\n        require(_super.subAccounts[_fromKey].balanceETH >= _value);\r\n        _super.subAccounts[_fromKey].balanceETH = _super.subAccounts[_fromKey].balanceETH.sub(_value);\r\n        _super.subAccounts[_toKey].balanceETH = _super.subAccounts[_toKey].balanceETH.add(_value);\r\n    }\r\n\r\n    ///Transfer from one sub account to a normal account\r\n    function transferETH(\r\n        SuperAccount storage _from, \r\n        bytes32 _fromKey,\r\n        Account storage _to,\r\n        uint _value) \r\n    internal \r\n    {   \r\n        require(_from.subAccounts[_fromKey].balanceETH >= _value);\r\n        transferETH(_from.base, _to, _value);\r\n        _from.subAccounts[_fromKey].balanceETH = _from.subAccounts[_fromKey].balanceETH.sub(_value);\r\n    }\r\n\r\n    ///Transfer from a normal account to a sub account\r\n    function transferETH(\r\n        Account storage _from,\r\n        SuperAccount storage _to, \r\n        bytes32 _toKey,\r\n        uint _value) \r\n    internal \r\n    {   \r\n        transferETH(_from, _to.base, _value);\r\n        _to.subAccounts[_toKey].balanceETH = _to.subAccounts[_toKey].balanceETH.add(_value);\r\n    }\r\n\r\n    function sendETH(SuperAccount storage a, bytes32 _fromKey, address _to, uint _value) \r\n    internal  \r\n    {\r\n        require(a.subAccounts[_fromKey].balanceETH >= _value);\r\n        a.subAccounts[_fromKey].balanceETH = a.subAccounts[_fromKey].balanceETH.sub(_value);\r\n        sendETH(a.base, _to, _value);\r\n    }\r\n\r\n    ///Transfer tokens from one sub account to another within two separate super accounts\r\n    function transferToken(\r\n        SuperAccount storage _from, \r\n        bytes32 _fromKey,\r\n        SuperAccount storage _to, \r\n        bytes32 _toKey,\r\n        address _token,\r\n        uint _value) \r\n    internal  \r\n    {\r\n        require(_from.subAccounts[_fromKey].tokenBalances[_token] >= _value);\r\n        transferToken(_from.base, _to.base, _token, _value);        \r\n        _from.subAccounts[_fromKey].tokenBalances[_token] = _from.subAccounts[_fromKey].tokenBalances[_token].sub(_value);\r\n        _to.subAccounts[_toKey].tokenBalances[_token] = _to.subAccounts[_toKey].tokenBalances[_token].add(_value);\r\n    }\r\n\r\n    ///Transfer tokens from one sub account to another within the same super account\r\n    function transferToken(\r\n        SuperAccount storage _super, \r\n        bytes32 _fromKey,\r\n        bytes32 _toKey,\r\n        address _token, \r\n        uint _value) \r\n    internal \r\n    {   \r\n        require(_super.subAccounts[_fromKey].tokenBalances[_token] >= _value);\r\n        _super.subAccounts[_fromKey].tokenBalances[_token] = _super.subAccounts[_fromKey].tokenBalances[_token].sub(_value);\r\n        _super.subAccounts[_toKey].tokenBalances[_token] = _super.subAccounts[_toKey].tokenBalances[_token].add(_value);\r\n}\r\n\r\n    ///Transfer tokens from one sub account to a normal account\r\n    function transferToken(\r\n        SuperAccount storage _from, \r\n        bytes32 _fromKey,\r\n        Account storage _to,\r\n        address _token,\r\n        uint _value) \r\n    internal \r\n    {   \r\n        require(_from.subAccounts[_fromKey].tokenBalances[_token] >= _value);\r\n        transferToken(_from.base, _to, _token, _value);\r\n        _from.subAccounts[_fromKey].tokenBalances[_token] = _from.subAccounts[_fromKey].tokenBalances[_token].sub(_value);\r\n    }\r\n\r\n    ///Transfer tokens from a normal account to a sub account\r\n    function transferToken(\r\n        Account storage _from,\r\n        SuperAccount storage _to, \r\n        bytes32 _toKey,\r\n        address _token,\r\n        uint _value) \r\n    internal \r\n    {\r\n        transferToken(_from, _to.base, _token, _value);\r\n        _to.subAccounts[_toKey].tokenBalances[_token] = _to.subAccounts[_toKey].tokenBalances[_token].add(_value);\r\n    }\r\n\r\n    function sendToken(SuperAccount storage a, bytes32 _fromKey, address _to, address _token, uint _value) \r\n    internal \r\n    {\r\n        require(a.subAccounts[_fromKey].tokenBalances[_token] >= _value);\r\n        a.subAccounts[_fromKey].tokenBalances[_token] = a.subAccounts[_fromKey].tokenBalances[_token].sub(_value);\r\n        sendToken(a.base, _to, _token, _value);\r\n    }\r\n        \r\n    ///A super account can be drained (although the sub-account balances can't be erased)\r\n    function drainETH(SuperAccount storage _from, Account storage _to) internal {\r\n        transferETH(_from.base, _to, _from.base.balanceETH);\r\n        }\r\n\r\n    function drainToken(SuperAccount storage _from, Account storage _to, address _token) internal {\r\n        transferToken(_from.base, _to, _token, _from.base.tokenBalances[_token]);\r\n    }\r\n\r\n}",
  "sourcePath": "C:\\Users\\Paskal\\Documents\\The_Button\\thebutton\\contracts\\accounting\\contracts\\Accounting.sol",
  "compiler": {
    "name": "solc",
    "version": "0.4.24+commit.e67f0147.Emscripten.clang"
  },
  "schemaVersion": "2.0.0",
  "updatedAt": "2018-06-25T08:25:54.897Z"
}